{
  "_format": "hh-sol-artifact-1",
  "contractName": "AttendanceLogger",
  "sourceName": "contracts/AttendanceLogger.sol",
  "abi": [
    {
      "anonymous": false,
      "inputs": [
        {
          "indexed": true,
          "internalType": "uint256",
          "name": "id",
          "type": "uint256"
        },
        {
          "indexed": false,
          "internalType": "string",
          "name": "nama",
          "type": "string"
        },
        {
          "indexed": false,
          "internalType": "uint256",
          "name": "waktu",
          "type": "uint256"
        },
        {
          "indexed": false,
          "internalType": "enum AttendanceLogger.Status",
          "name": "status",
          "type": "uint8"
        },
        {
          "indexed": true,
          "internalType": "address",
          "name": "pencatat",
          "type": "address"
        }
      ],
      "name": "AttendanceLogged",
      "type": "event"
    },
    {
      "inputs": [
        {
          "internalType": "uint256",
          "name": "startId",
          "type": "uint256"
        },
        {
          "internalType": "uint256",
          "name": "count",
          "type": "uint256"
        }
      ],
      "name": "getBatch",
      "outputs": [
        {
          "components": [
            {
              "internalType": "uint256",
              "name": "id",
              "type": "uint256"
            },
            {
              "internalType": "string",
              "name": "nama",
              "type": "string"
            },
            {
              "internalType": "uint256",
              "name": "waktu",
              "type": "uint256"
            },
            {
              "internalType": "enum AttendanceLogger.Status",
              "name": "status",
              "type": "uint8"
            },
            {
              "internalType": "address",
              "name": "pencatat",
              "type": "address"
            }
          ],
          "internalType": "struct AttendanceLogger.Record[]",
          "name": "out",
          "type": "tuple[]"
        }
      ],
      "stateMutability": "view",
      "type": "function"
    },
    {
      "inputs": [
        {
          "internalType": "string",
          "name": "_nama",
          "type": "string"
        },
        {
          "internalType": "enum AttendanceLogger.Status",
          "name": "_status",
          "type": "uint8"
        }
      ],
      "name": "logAttendance",
      "outputs": [],
      "stateMutability": "nonpayable",
      "type": "function"
    },
    {
      "inputs": [
        {
          "internalType": "uint256",
          "name": "",
          "type": "uint256"
        }
      ],
      "name": "records",
      "outputs": [
        {
          "internalType": "uint256",
          "name": "id",
          "type": "uint256"
        },
        {
          "internalType": "string",
          "name": "nama",
          "type": "string"
        },
        {
          "internalType": "uint256",
          "name": "waktu",
          "type": "uint256"
        },
        {
          "internalType": "enum AttendanceLogger.Status",
          "name": "status",
          "type": "uint8"
        },
        {
          "internalType": "address",
          "name": "pencatat",
          "type": "address"
        }
      ],
      "stateMutability": "view",
      "type": "function"
    },
    {
      "inputs": [],
      "name": "total",
      "outputs": [
        {
          "internalType": "uint256",
          "name": "",
          "type": "uint256"
        }
      ],
      "stateMutability": "view",
      "type": "function"
    }
  ],
  "bytecode": "0x608060405234801561001057600080fd5b506110f2806100206000396000f3fe608060405234801561001057600080fd5b506004361061004c5760003560e01c80632ddbd13a146100515780633016a6a21461006f578063344610671461008b578063fe918e68146100bf575b600080fd5b6100596100ef565b604051610066919061069e565b60405180910390f35b6100896004803603810190610084919061074d565b6100f5565b005b6100a560048036038101906100a091906107d9565b6102b2565b6040516100b695949392919061094e565b60405180910390f35b6100d960048036038101906100d491906109a8565b61039d565b6040516100e69190610b97565b60405180910390f35b60005481565b6000806000815461010590610be8565b91905081905590506040518060a0016040528082815260200185858080601f016020809104026020016040519081016040528093929190818152602001838380828437600081840152601f19601f82011690508083019250505050505050815260200142815260200183600181111561018157610180610896565b5b81526020013373ffffffffffffffffffffffffffffffffffffffff16815250600160008381526020019081526020016000206000820151816000015560208201518160010190816101d29190610e6b565b506040820151816002015560608201518160030160006101000a81548160ff0219169083600181111561020857610207610896565b5b021790555060808201518160030160016101000a81548173ffffffffffffffffffffffffffffffffffffffff021916908373ffffffffffffffffffffffffffffffffffffffff1602179055509050503373ffffffffffffffffffffffffffffffffffffffff16817fb61886c2473cea21e4daa4c4fe0570e403b7cb933f3cb54f3014dc4618d0fc4b868642876040516102a49493929190610f79565b60405180910390a350505050565b60016020528060005260406000206000915090508060000154908060010180546102db90610c8e565b80601f016020809104026020016040519081016040528092919081815260200182805461030790610c8e565b80156103545780601f1061032957610100808354040283529160200191610354565b820191906000526020600020905b81548152906001019060200180831161033757829003601f168201915b5050505050908060020154908060030160009054906101000a900460ff16908060030160019054906101000a900473ffffffffffffffffffffffffffffffffffffffff16905085565b6060600183101580156103b257506000548311155b6103f1576040517f08c379a00000000000000000000000000000000000000000000000000000000081526004016103e890611005565b60405180910390fd5b6000600183856104019190611025565b61040b9190611059565b905060005481111561041d5760005490505b60006001858361042d9190611059565b6104379190611025565b90508067ffffffffffffffff81111561045357610452610c30565b5b60405190808252806020026020018201604052801561048c57816020015b61047961062e565b8152602001906001900390816104715790505b50925060005b81811015610625576001600082886104aa9190611025565b81526020019081526020016000206040518060a0016040529081600082015481526020016001820180546104dd90610c8e565b80601f016020809104026020016040519081016040528092919081815260200182805461050990610c8e565b80156105565780601f1061052b57610100808354040283529160200191610556565b820191906000526020600020905b81548152906001019060200180831161053957829003601f168201915b50505050508152602001600282015481526020016003820160009054906101000a900460ff16600181111561058e5761058d610896565b5b60018111156105a05761059f610896565b5b81526020016003820160019054906101000a900473ffffffffffffffffffffffffffffffffffffffff1673ffffffffffffffffffffffffffffffffffffffff1673ffffffffffffffffffffffffffffffffffffffff168152505084828151811061060d5761060c61108d565b5b60200260200101819052508080600101915050610492565b50505092915050565b6040518060a001604052806000815260200160608152602001600081526020016000600181111561066257610661610896565b5b8152602001600073ffffffffffffffffffffffffffffffffffffffff1681525090565b6000819050919050565b61069881610685565b82525050565b60006020820190506106b3600083018461068f565b92915050565b600080fd5b600080fd5b600080fd5b600080fd5b600080fd5b60008083601f8401126106e8576106e76106c3565b5b8235905067ffffffffffffffff811115610705576107046106c8565b5b602083019150836001820283011115610721576107206106cd565b5b9250929050565b6002811061073557600080fd5b50565b60008135905061074781610728565b92915050565b600080600060408486031215610766576107656106b9565b5b600084013567ffffffffffffffff811115610784576107836106be565b5b610790868287016106d2565b935093505060206107a386828701610738565b9150509250925092565b6107b681610685565b81146107c157600080fd5b50565b6000813590506107d3816107ad565b92915050565b6000602082840312156107ef576107ee6106b9565b5b60006107fd848285016107c4565b91505092915050565b600081519050919050565b600082825260208201905092915050565b60005b83811015610840578082015181840152602081019050610825565b60008484015250505050565b6000601f19601f8301169050919050565b600061086882610806565b6108728185610811565b9350610882818560208601610822565b61088b8161084c565b840191505092915050565b7f4e487b7100000000000000000000000000000000000000000000000000000000600052602160045260246000fd5b600281106108d6576108d5610896565b5b50565b60008190506108e7826108c5565b919050565b60006108f7826108d9565b9050919050565b610907816108ec565b82525050565b600073ffffffffffffffffffffffffffffffffffffffff82169050919050565b60006109388261090d565b9050919050565b6109488161092d565b82525050565b600060a082019050610963600083018861068f565b8181036020830152610975818761085d565b9050610984604083018661068f565b61099160608301856108fe565b61099e608083018461093f565b9695505050505050565b600080604083850312156109bf576109be6106b9565b5b60006109cd858286016107c4565b92505060206109de858286016107c4565b9150509250929050565b600081519050919050565b600082825260208201905092915050565b6000819050602082019050919050565b610a1d81610685565b82525050565b600082825260208201905092915050565b6000610a3f82610806565b610a498185610a23565b9350610a59818560208601610822565b610a628161084c565b840191505092915050565b610a76816108ec565b82525050565b610a858161092d565b82525050565b600060a083016000830151610aa36000860182610a14565b5060208301518482036020860152610abb8282610a34565b9150506040830151610ad06040860182610a14565b506060830151610ae36060860182610a6d565b506080830151610af66080860182610a7c565b508091505092915050565b6000610b0d8383610a8b565b905092915050565b6000602082019050919050565b6000610b2d826109e8565b610b3781856109f3565b935083602082028501610b4985610a04565b8060005b85811015610b855784840389528151610b668582610b01565b9450610b7183610b15565b925060208a01995050600181019050610b4d565b50829750879550505050505092915050565b60006020820190508181036000830152610bb18184610b22565b905092915050565b7f4e487b7100000000000000000000000000000000000000000000000000000000600052601160045260246000fd5b6000610bf382610685565b91507fffffffffffffffffffffffffffffffffffffffffffffffffffffffffffffffff8203610c2557610c24610bb9565b5b600182019050919050565b7f4e487b7100000000000000000000000000000000000000000000000000000000600052604160045260246000fd5b7f4e487b7100000000000000000000000000000000000000000000000000000000600052602260045260246000fd5b60006002820490506001821680610ca657607f821691505b602082108103610cb957610cb8610c5f565b5b50919050565b60008190508160005260206000209050919050565b60006020601f8301049050919050565b600082821b905092915050565b600060088302610d217fffffffffffffffffffffffffffffffffffffffffffffffffffffffffffffffff82610ce4565b610d2b8683610ce4565b95508019841693508086168417925050509392505050565b6000819050919050565b6000610d68610d63610d5e84610685565b610d43565b610685565b9050919050565b6000819050919050565b610d8283610d4d565b610d96610d8e82610d6f565b848454610cf1565b825550505050565b600090565b610dab610d9e565b610db6818484610d79565b505050565b5b81811015610dda57610dcf600082610da3565b600181019050610dbc565b5050565b601f821115610e1f57610df081610cbf565b610df984610cd4565b81016020851015610e08578190505b610e1c610e1485610cd4565b830182610dbb565b50505b505050565b600082821c905092915050565b6000610e4260001984600802610e24565b1980831691505092915050565b6000610e5b8383610e31565b9150826002028217905092915050565b610e7482610806565b67ffffffffffffffff811115610e8d57610e8c610c30565b5b610e978254610c8e565b610ea2828285610dde565b600060209050601f831160018114610ed55760008415610ec3578287015190505b610ecd8582610e4f565b865550610f35565b601f198416610ee386610cbf565b60005b82811015610f0b57848901518255600182019150602085019450602081019050610ee6565b86831015610f285784890151610f24601f891682610e31565b8355505b6001600288020188555050505b505050505050565b82818337600083830152505050565b6000610f588385610811565b9350610f65838584610f3d565b610f6e8361084c565b840190509392505050565b60006060820190508181036000830152610f94818688610f4c565b9050610fa3602083018561068f565b610fb060408301846108fe565b95945050505050565b7f73746172744964206f7574206f662072616e6765000000000000000000000000600082015250565b6000610fef601483610811565b9150610ffa82610fb9565b602082019050919050565b6000602082019050818103600083015261101e81610fe2565b9050919050565b600061103082610685565b915061103b83610685565b925082820190508082111561105357611052610bb9565b5b92915050565b600061106482610685565b915061106f83610685565b925082820390508181111561108757611086610bb9565b5b92915050565b7f4e487b7100000000000000000000000000000000000000000000000000000000600052603260045260246000fdfea264697066735822122055b8bc14f7da2257caac40deffb9081fec106eb864f5aaa749861ab6ea5ca84a64736f6c63430008180033",
  "linkReferences": {},
  "deployedLinkReferences": {}
}