{"contracts/AttendanceLogger.sol":{"AttendanceLogger":{"abi":[{"anonymous":false,"inputs":[{"indexed":true,"internalType":"uint256","name":"id","type":"uint256"},{"indexed":false,"internalType":"string","name":"nama","type":"string"},{"indexed":false,"internalType":"uint256","name":"waktu","type":"uint256"},{"indexed":false,"internalType":"enum AttendanceLogger.Status","name":"status","type":"uint8"},{"indexed":true,"internalType":"address","name":"pencatat","type":"address"}],"name":"AttendanceLogged","type":"event"},{"inputs":[{"internalType":"uint256","name":"startId","type":"uint256"},{"internalType":"uint256","name":"count","type":"uint256"}],"name":"getBatch","outputs":[{"components":[{"internalType":"uint256","name":"id","type":"uint256"},{"internalType":"string","name":"nama","type":"string"},{"internalType":"uint256","name":"waktu","type":"uint256"},{"internalType":"enum AttendanceLogger.Status","name":"status","type":"uint8"},{"internalType":"address","name":"pencatat","type":"address"}],"internalType":"struct AttendanceLogger.Record[]","name":"out","type":"tuple[]"}],"stateMutability":"view","type":"function"},{"inputs":[{"internalType":"string","name":"_nama","type":"string"},{"internalType":"enum AttendanceLogger.Status","name":"_status","type":"uint8"}],"name":"logAttendance","outputs":[],"stateMutability":"nonpayable","type":"function"},{"inputs":[{"internalType":"uint256","name":"","type":"uint256"}],"name":"records","outputs":[{"internalType":"uint256","name":"id","type":"uint256"},{"internalType":"string","name":"nama","type":"string"},{"internalType":"uint256","name":"waktu","type":"uint256"},{"internalType":"enum AttendanceLogger.Status","name":"status","type":"uint8"},{"internalType":"address","name":"pencatat","type":"address"}],"stateMutability":"view","type":"function"},{"inputs":[],"name":"total","outputs":[{"internalType":"uint256","name":"","type":"uint256"}],"stateMutability":"view","type":"function"}],"evm":{"bytecode":{"linkReferences":{},"object":"608060405234801561001057600080fd5b506110f2806100206000396000f3fe608060405234801561001057600080fd5b506004361061004c5760003560e01c80632ddbd13a146100515780633016a6a21461006f578063344610671461008b578063fe918e68146100bf575b600080fd5b6100596100ef565b604051610066919061069e565b60405180910390f35b6100896004803603810190610084919061074d565b6100f5565b005b6100a560048036038101906100a091906107d9565b6102b2565b6040516100b695949392919061094e565b60405180910390f35b6100d960048036038101906100d491906109a8565b61039d565b6040516100e69190610b97565b60405180910390f35b60005481565b6000806000815461010590610be8565b91905081905590506040518060a0016040528082815260200185858080601f016020809104026020016040519081016040528093929190818152602001838380828437600081840152601f19601f82011690508083019250505050505050815260200142815260200183600181111561018157610180610896565b5b81526020013373ffffffffffffffffffffffffffffffffffffffff16815250600160008381526020019081526020016000206000820151816000015560208201518160010190816101d29190610e6b565b506040820151816002015560608201518160030160006101000a81548160ff0219169083600181111561020857610207610896565b5b021790555060808201518160030160016101000a81548173ffffffffffffffffffffffffffffffffffffffff021916908373ffffffffffffffffffffffffffffffffffffffff1602179055509050503373ffffffffffffffffffffffffffffffffffffffff16817fb61886c2473cea21e4daa4c4fe0570e403b7cb933f3cb54f3014dc4618d0fc4b868642876040516102a49493929190610f79565b60405180910390a350505050565b60016020528060005260406000206000915090508060000154908060010180546102db90610c8e565b80601f016020809104026020016040519081016040528092919081815260200182805461030790610c8e565b80156103545780601f1061032957610100808354040283529160200191610354565b820191906000526020600020905b81548152906001019060200180831161033757829003601f168201915b5050505050908060020154908060030160009054906101000a900460ff16908060030160019054906101000a900473ffffffffffffffffffffffffffffffffffffffff16905085565b6060600183101580156103b257506000548311155b6103f1576040517f08c379a00000000000000000000000000000000000000000000000000000000081526004016103e890611005565b60405180910390fd5b6000600183856104019190611025565b61040b9190611059565b905060005481111561041d5760005490505b60006001858361042d9190611059565b6104379190611025565b90508067ffffffffffffffff81111561045357610452610c30565b5b60405190808252806020026020018201604052801561048c57816020015b61047961062e565b8152602001906001900390816104715790505b50925060005b81811015610625576001600082886104aa9190611025565b81526020019081526020016000206040518060a0016040529081600082015481526020016001820180546104dd90610c8e565b80601f016020809104026020016040519081016040528092919081815260200182805461050990610c8e565b80156105565780601f1061052b57610100808354040283529160200191610556565b820191906000526020600020905b81548152906001019060200180831161053957829003601f168201915b50505050508152602001600282015481526020016003820160009054906101000a900460ff16600181111561058e5761058d610896565b5b60018111156105a05761059f610896565b5b81526020016003820160019054906101000a900473ffffffffffffffffffffffffffffffffffffffff1673ffffffffffffffffffffffffffffffffffffffff1673ffffffffffffffffffffffffffffffffffffffff168152505084828151811061060d5761060c61108d565b5b60200260200101819052508080600101915050610492565b50505092915050565b6040518060a001604052806000815260200160608152602001600081526020016000600181111561066257610661610896565b5b8152602001600073ffffffffffffffffffffffffffffffffffffffff1681525090565b6000819050919050565b61069881610685565b82525050565b60006020820190506106b3600083018461068f565b92915050565b600080fd5b600080fd5b600080fd5b600080fd5b600080fd5b60008083601f8401126106e8576106e76106c3565b5b8235905067ffffffffffffffff811115610705576107046106c8565b5b602083019150836001820283011115610721576107206106cd565b5b9250929050565b6002811061073557600080fd5b50565b60008135905061074781610728565b92915050565b600080600060408486031215610766576107656106b9565b5b600084013567ffffffffffffffff811115610784576107836106be565b5b610790868287016106d2565b935093505060206107a386828701610738565b9150509250925092565b6107b681610685565b81146107c157600080fd5b50565b6000813590506107d3816107ad565b92915050565b6000602082840312156107ef576107ee6106b9565b5b60006107fd848285016107c4565b91505092915050565b600081519050919050565b600082825260208201905092915050565b60005b83811015610840578082015181840152602081019050610825565b60008484015250505050565b6000601f19601f8301169050919050565b600061086882610806565b6108728185610811565b9350610882818560208601610822565b61088b8161084c565b840191505092915050565b7f4e487b7100000000000000000000000000000000000000000000000000000000600052602160045260246000fd5b600281106108d6576108d5610896565b5b50565b60008190506108e7826108c5565b919050565b60006108f7826108d9565b9050919050565b610907816108ec565b82525050565b600073ffffffffffffffffffffffffffffffffffffffff82169050919050565b60006109388261090d565b9050919050565b6109488161092d565b82525050565b600060a082019050610963600083018861068f565b8181036020830152610975818761085d565b9050610984604083018661068f565b61099160608301856108fe565b61099e608083018461093f565b9695505050505050565b600080604083850312156109bf576109be6106b9565b5b60006109cd858286016107c4565b92505060206109de858286016107c4565b9150509250929050565b600081519050919050565b600082825260208201905092915050565b6000819050602082019050919050565b610a1d81610685565b82525050565b600082825260208201905092915050565b6000610a3f82610806565b610a498185610a23565b9350610a59818560208601610822565b610a628161084c565b840191505092915050565b610a76816108ec565b82525050565b610a858161092d565b82525050565b600060a083016000830151610aa36000860182610a14565b5060208301518482036020860152610abb8282610a34565b9150506040830151610ad06040860182610a14565b506060830151610ae36060860182610a6d565b506080830151610af66080860182610a7c565b508091505092915050565b6000610b0d8383610a8b565b905092915050565b6000602082019050919050565b6000610b2d826109e8565b610b3781856109f3565b935083602082028501610b4985610a04565b8060005b85811015610b855784840389528151610b668582610b01565b9450610b7183610b15565b925060208a01995050600181019050610b4d565b50829750879550505050505092915050565b60006020820190508181036000830152610bb18184610b22565b905092915050565b7f4e487b7100000000000000000000000000000000000000000000000000000000600052601160045260246000fd5b6000610bf382610685565b91507fffffffffffffffffffffffffffffffffffffffffffffffffffffffffffffffff8203610c2557610c24610bb9565b5b600182019050919050565b7f4e487b7100000000000000000000000000000000000000000000000000000000600052604160045260246000fd5b7f4e487b7100000000000000000000000000000000000000000000000000000000600052602260045260246000fd5b60006002820490506001821680610ca657607f821691505b602082108103610cb957610cb8610c5f565b5b50919050565b60008190508160005260206000209050919050565b60006020601f8301049050919050565b600082821b905092915050565b600060088302610d217fffffffffffffffffffffffffffffffffffffffffffffffffffffffffffffffff82610ce4565b610d2b8683610ce4565b95508019841693508086168417925050509392505050565b6000819050919050565b6000610d68610d63610d5e84610685565b610d43565b610685565b9050919050565b6000819050919050565b610d8283610d4d565b610d96610d8e82610d6f565b848454610cf1565b825550505050565b600090565b610dab610d9e565b610db6818484610d79565b505050565b5b81811015610dda57610dcf600082610da3565b600181019050610dbc565b5050565b601f821115610e1f57610df081610cbf565b610df984610cd4565b81016020851015610e08578190505b610e1c610e1485610cd4565b830182610dbb565b50505b505050565b600082821c905092915050565b6000610e4260001984600802610e24565b1980831691505092915050565b6000610e5b8383610e31565b9150826002028217905092915050565b610e7482610806565b67ffffffffffffffff811115610e8d57610e8c610c30565b5b610e978254610c8e565b610ea2828285610dde565b600060209050601f831160018114610ed55760008415610ec3578287015190505b610ecd8582610e4f565b865550610f35565b601f198416610ee386610cbf565b60005b82811015610f0b57848901518255600182019150602085019450602081019050610ee6565b86831015610f285784890151610f24601f891682610e31565b8355505b6001600288020188555050505b505050505050565b82818337600083830152505050565b6000610f588385610811565b9350610f65838584610f3d565b610f6e8361084c565b840190509392505050565b60006060820190508181036000830152610f94818688610f4c565b9050610fa3602083018561068f565b610fb060408301846108fe565b95945050505050565b7f73746172744964206f7574206f662072616e6765000000000000000000000000600082015250565b6000610fef601483610811565b9150610ffa82610fb9565b602082019050919050565b6000602082019050818103600083015261101e81610fe2565b9050919050565b600061103082610685565b915061103b83610685565b925082820190508082111561105357611052610bb9565b5b92915050565b600061106482610685565b915061106f83610685565b925082820390508181111561108757611086610bb9565b5b92915050565b7f4e487b7100000000000000000000000000000000000000000000000000000000600052603260045260246000fdfea264697066735822122055b8bc14f7da2257caac40deffb9081fec106eb864f5aaa749861ab6ea5ca84a64736f6c63430008180033","opcodes":"PUSH1 0x80 PUSH1 0x40 MSTORE CALLVALUE DUP1 ISZERO PUSH2 0x10 JUMPI PUSH1 0x0 DUP1 REVERT JUMPDEST POP PUSH2 0x10F2 DUP1 PUSH2 0x20 PUSH1 0x0 CODECOPY PUSH1 0x0 RETURN INVALID PUSH1 0x80 PUSH1 0x40 MSTORE CALLVALUE DUP1 ISZERO PUSH2 0x10 JUMPI PUSH1 0x0 DUP1 REVERT JUMPDEST POP PUSH1 0x4 CALLDATASIZE LT PUSH2 0x4C JUMPI PUSH1 0x0 CALLDATALOAD PUSH1 0xE0 SHR DUP1 PUSH4 0x2DDBD13A EQ PUSH2 0x51 JUMPI DUP1 PUSH4 0x3016A6A2 EQ PUSH2 0x6F JUMPI DUP1 PUSH4 0x34461067 EQ PUSH2 0x8B JUMPI DUP1 PUSH4 0xFE918E68 EQ PUSH2 0xBF JUMPI JUMPDEST PUSH1 0x0 DUP1 REVERT JUMPDEST PUSH2 0x59 PUSH2 0xEF JUMP JUMPDEST PUSH1 0x40 MLOAD PUSH2 0x66 SWAP2 SWAP1 PUSH2 0x69E JUMP JUMPDEST PUSH1 0x40 MLOAD DUP1 SWAP2 SUB SWAP1 RETURN JUMPDEST PUSH2 0x89 PUSH1 0x4 DUP1 CALLDATASIZE SUB DUP2 ADD SWAP1 PUSH2 0x84 SWAP2 SWAP1 PUSH2 0x74D JUMP JUMPDEST PUSH2 0xF5 JUMP JUMPDEST STOP JUMPDEST PUSH2 0xA5 PUSH1 0x4 DUP1 CALLDATASIZE SUB DUP2 ADD SWAP1 PUSH2 0xA0 SWAP2 SWAP1 PUSH2 0x7D9 JUMP JUMPDEST PUSH2 0x2B2 JUMP JUMPDEST PUSH1 0x40 MLOAD PUSH2 0xB6 SWAP6 SWAP5 SWAP4 SWAP3 SWAP2 SWAP1 PUSH2 0x94E JUMP JUMPDEST PUSH1 0x40 MLOAD DUP1 SWAP2 SUB SWAP1 RETURN JUMPDEST PUSH2 0xD9 PUSH1 0x4 DUP1 CALLDATASIZE SUB DUP2 ADD SWAP1 PUSH2 0xD4 SWAP2 SWAP1 PUSH2 0x9A8 JUMP JUMPDEST PUSH2 0x39D JUMP JUMPDEST PUSH1 0x40 MLOAD PUSH2 0xE6 SWAP2 SWAP1 PUSH2 0xB97 JUMP JUMPDEST PUSH1 0x40 MLOAD DUP1 SWAP2 SUB SWAP1 RETURN JUMPDEST PUSH1 0x0 SLOAD DUP2 JUMP JUMPDEST PUSH1 0x0 DUP1 PUSH1 0x0 DUP2 SLOAD PUSH2 0x105 SWAP1 PUSH2 0xBE8 JUMP JUMPDEST SWAP2 SWAP1 POP DUP2 SWAP1 SSTORE SWAP1 POP PUSH1 0x40 MLOAD DUP1 PUSH1 0xA0 ADD PUSH1 0x40 MSTORE DUP1 DUP3 DUP2 MSTORE PUSH1 0x20 ADD DUP6 DUP6 DUP1 DUP1 PUSH1 0x1F ADD PUSH1 0x20 DUP1 SWAP2 DIV MUL PUSH1 0x20 ADD PUSH1 0x40 MLOAD SWAP1 DUP2 ADD PUSH1 0x40 MSTORE DUP1 SWAP4 SWAP3 SWAP2 SWAP1 DUP2 DUP2 MSTORE PUSH1 0x20 ADD DUP4 DUP4 DUP1 DUP3 DUP5 CALLDATACOPY PUSH1 0x0 DUP2 DUP5 ADD MSTORE PUSH1 0x1F NOT PUSH1 0x1F DUP3 ADD AND SWAP1 POP DUP1 DUP4 ADD SWAP3 POP POP POP POP POP POP POP DUP2 MSTORE PUSH1 0x20 ADD TIMESTAMP DUP2 MSTORE PUSH1 0x20 ADD DUP4 PUSH1 0x1 DUP2 GT ISZERO PUSH2 0x181 JUMPI PUSH2 0x180 PUSH2 0x896 JUMP JUMPDEST JUMPDEST DUP2 MSTORE PUSH1 0x20 ADD CALLER PUSH20 0xFFFFFFFFFFFFFFFFFFFFFFFFFFFFFFFFFFFFFFFF AND DUP2 MSTORE POP PUSH1 0x1 PUSH1 0x0 DUP4 DUP2 MSTORE PUSH1 0x20 ADD SWAP1 DUP2 MSTORE PUSH1 0x20 ADD PUSH1 0x0 KECCAK256 PUSH1 0x0 DUP3 ADD MLOAD DUP2 PUSH1 0x0 ADD SSTORE PUSH1 0x20 DUP3 ADD MLOAD DUP2 PUSH1 0x1 ADD SWAP1 DUP2 PUSH2 0x1D2 SWAP2 SWAP1 PUSH2 0xE6B JUMP JUMPDEST POP PUSH1 0x40 DUP3 ADD MLOAD DUP2 PUSH1 0x2 ADD SSTORE PUSH1 0x60 DUP3 ADD MLOAD DUP2 PUSH1 0x3 ADD PUSH1 0x0 PUSH2 0x100 EXP DUP2 SLOAD DUP2 PUSH1 0xFF MUL NOT AND SWAP1 DUP4 PUSH1 0x1 DUP2 GT ISZERO PUSH2 0x208 JUMPI PUSH2 0x207 PUSH2 0x896 JUMP JUMPDEST JUMPDEST MUL OR SWAP1 SSTORE POP PUSH1 0x80 DUP3 ADD MLOAD DUP2 PUSH1 0x3 ADD PUSH1 0x1 PUSH2 0x100 EXP DUP2 SLOAD DUP2 PUSH20 0xFFFFFFFFFFFFFFFFFFFFFFFFFFFFFFFFFFFFFFFF MUL NOT AND SWAP1 DUP4 PUSH20 0xFFFFFFFFFFFFFFFFFFFFFFFFFFFFFFFFFFFFFFFF AND MUL OR SWAP1 SSTORE POP SWAP1 POP POP CALLER PUSH20 0xFFFFFFFFFFFFFFFFFFFFFFFFFFFFFFFFFFFFFFFF AND DUP2 PUSH32 0xB61886C2473CEA21E4DAA4C4FE0570E403B7CB933F3CB54F3014DC4618D0FC4B DUP7 DUP7 TIMESTAMP DUP8 PUSH1 0x40 MLOAD PUSH2 0x2A4 SWAP5 SWAP4 SWAP3 SWAP2 SWAP1 PUSH2 0xF79 JUMP JUMPDEST PUSH1 0x40 MLOAD DUP1 SWAP2 SUB SWAP1 LOG3 POP POP POP POP JUMP JUMPDEST PUSH1 0x1 PUSH1 0x20 MSTORE DUP1 PUSH1 0x0 MSTORE PUSH1 0x40 PUSH1 0x0 KECCAK256 PUSH1 0x0 SWAP2 POP SWAP1 POP DUP1 PUSH1 0x0 ADD SLOAD SWAP1 DUP1 PUSH1 0x1 ADD DUP1 SLOAD PUSH2 0x2DB SWAP1 PUSH2 0xC8E JUMP JUMPDEST DUP1 PUSH1 0x1F ADD PUSH1 0x20 DUP1 SWAP2 DIV MUL PUSH1 0x20 ADD PUSH1 0x40 MLOAD SWAP1 DUP2 ADD PUSH1 0x40 MSTORE DUP1 SWAP3 SWAP2 SWAP1 DUP2 DUP2 MSTORE PUSH1 0x20 ADD DUP3 DUP1 SLOAD PUSH2 0x307 SWAP1 PUSH2 0xC8E JUMP JUMPDEST DUP1 ISZERO PUSH2 0x354 JUMPI DUP1 PUSH1 0x1F LT PUSH2 0x329 JUMPI PUSH2 0x100 DUP1 DUP4 SLOAD DIV MUL DUP4 MSTORE SWAP2 PUSH1 0x20 ADD SWAP2 PUSH2 0x354 JUMP JUMPDEST DUP3 ADD SWAP2 SWAP1 PUSH1 0x0 MSTORE PUSH1 0x20 PUSH1 0x0 KECCAK256 SWAP1 JUMPDEST DUP2 SLOAD DUP2 MSTORE SWAP1 PUSH1 0x1 ADD SWAP1 PUSH1 0x20 ADD DUP1 DUP4 GT PUSH2 0x337 JUMPI DUP3 SWAP1 SUB PUSH1 0x1F AND DUP3 ADD SWAP2 JUMPDEST POP POP POP POP POP SWAP1 DUP1 PUSH1 0x2 ADD SLOAD SWAP1 DUP1 PUSH1 0x3 ADD PUSH1 0x0 SWAP1 SLOAD SWAP1 PUSH2 0x100 EXP SWAP1 DIV PUSH1 0xFF AND SWAP1 DUP1 PUSH1 0x3 ADD PUSH1 0x1 SWAP1 SLOAD SWAP1 PUSH2 0x100 EXP SWAP1 DIV PUSH20 0xFFFFFFFFFFFFFFFFFFFFFFFFFFFFFFFFFFFFFFFF AND SWAP1 POP DUP6 JUMP JUMPDEST PUSH1 0x60 PUSH1 0x1 DUP4 LT ISZERO DUP1 ISZERO PUSH2 0x3B2 JUMPI POP PUSH1 0x0 SLOAD DUP4 GT ISZERO JUMPDEST PUSH2 0x3F1 JUMPI PUSH1 0x40 MLOAD PUSH32 0x8C379A000000000000000000000000000000000000000000000000000000000 DUP2 MSTORE PUSH1 0x4 ADD PUSH2 0x3E8 SWAP1 PUSH2 0x1005 JUMP JUMPDEST PUSH1 0x40 MLOAD DUP1 SWAP2 SUB SWAP1 REVERT JUMPDEST PUSH1 0x0 PUSH1 0x1 DUP4 DUP6 PUSH2 0x401 SWAP2 SWAP1 PUSH2 0x1025 JUMP JUMPDEST PUSH2 0x40B SWAP2 SWAP1 PUSH2 0x1059 JUMP JUMPDEST SWAP1 POP PUSH1 0x0 SLOAD DUP2 GT ISZERO PUSH2 0x41D JUMPI PUSH1 0x0 SLOAD SWAP1 POP JUMPDEST PUSH1 0x0 PUSH1 0x1 DUP6 DUP4 PUSH2 0x42D SWAP2 SWAP1 PUSH2 0x1059 JUMP JUMPDEST PUSH2 0x437 SWAP2 SWAP1 PUSH2 0x1025 JUMP JUMPDEST SWAP1 POP DUP1 PUSH8 0xFFFFFFFFFFFFFFFF DUP2 GT ISZERO PUSH2 0x453 JUMPI PUSH2 0x452 PUSH2 0xC30 JUMP JUMPDEST JUMPDEST PUSH1 0x40 MLOAD SWAP1 DUP1 DUP3 MSTORE DUP1 PUSH1 0x20 MUL PUSH1 0x20 ADD DUP3 ADD PUSH1 0x40 MSTORE DUP1 ISZERO PUSH2 0x48C JUMPI DUP2 PUSH1 0x20 ADD JUMPDEST PUSH2 0x479 PUSH2 0x62E JUMP JUMPDEST DUP2 MSTORE PUSH1 0x20 ADD SWAP1 PUSH1 0x1 SWAP1 SUB SWAP1 DUP2 PUSH2 0x471 JUMPI SWAP1 POP JUMPDEST POP SWAP3 POP PUSH1 0x0 JUMPDEST DUP2 DUP2 LT ISZERO PUSH2 0x625 JUMPI PUSH1 0x1 PUSH1 0x0 DUP3 DUP9 PUSH2 0x4AA SWAP2 SWAP1 PUSH2 0x1025 JUMP JUMPDEST DUP2 MSTORE PUSH1 0x20 ADD SWAP1 DUP2 MSTORE PUSH1 0x20 ADD PUSH1 0x0 KECCAK256 PUSH1 0x40 MLOAD DUP1 PUSH1 0xA0 ADD PUSH1 0x40 MSTORE SWAP1 DUP2 PUSH1 0x0 DUP3 ADD SLOAD DUP2 MSTORE PUSH1 0x20 ADD PUSH1 0x1 DUP3 ADD DUP1 SLOAD PUSH2 0x4DD SWAP1 PUSH2 0xC8E JUMP JUMPDEST DUP1 PUSH1 0x1F ADD PUSH1 0x20 DUP1 SWAP2 DIV MUL PUSH1 0x20 ADD PUSH1 0x40 MLOAD SWAP1 DUP2 ADD PUSH1 0x40 MSTORE DUP1 SWAP3 SWAP2 SWAP1 DUP2 DUP2 MSTORE PUSH1 0x20 ADD DUP3 DUP1 SLOAD PUSH2 0x509 SWAP1 PUSH2 0xC8E JUMP JUMPDEST DUP1 ISZERO PUSH2 0x556 JUMPI DUP1 PUSH1 0x1F LT PUSH2 0x52B JUMPI PUSH2 0x100 DUP1 DUP4 SLOAD DIV MUL DUP4 MSTORE SWAP2 PUSH1 0x20 ADD SWAP2 PUSH2 0x556 JUMP JUMPDEST DUP3 ADD SWAP2 SWAP1 PUSH1 0x0 MSTORE PUSH1 0x20 PUSH1 0x0 KECCAK256 SWAP1 JUMPDEST DUP2 SLOAD DUP2 MSTORE SWAP1 PUSH1 0x1 ADD SWAP1 PUSH1 0x20 ADD DUP1 DUP4 GT PUSH2 0x539 JUMPI DUP3 SWAP1 SUB PUSH1 0x1F AND DUP3 ADD SWAP2 JUMPDEST POP POP POP POP POP DUP2 MSTORE PUSH1 0x20 ADD PUSH1 0x2 DUP3 ADD SLOAD DUP2 MSTORE PUSH1 0x20 ADD PUSH1 0x3 DUP3 ADD PUSH1 0x0 SWAP1 SLOAD SWAP1 PUSH2 0x100 EXP SWAP1 DIV PUSH1 0xFF AND PUSH1 0x1 DUP2 GT ISZERO PUSH2 0x58E JUMPI PUSH2 0x58D PUSH2 0x896 JUMP JUMPDEST JUMPDEST PUSH1 0x1 DUP2 GT ISZERO PUSH2 0x5A0 JUMPI PUSH2 0x59F PUSH2 0x896 JUMP JUMPDEST JUMPDEST DUP2 MSTORE PUSH1 0x20 ADD PUSH1 0x3 DUP3 ADD PUSH1 0x1 SWAP1 SLOAD SWAP1 PUSH2 0x100 EXP SWAP1 DIV PUSH20 0xFFFFFFFFFFFFFFFFFFFFFFFFFFFFFFFFFFFFFFFF AND PUSH20 0xFFFFFFFFFFFFFFFFFFFFFFFFFFFFFFFFFFFFFFFF AND PUSH20 0xFFFFFFFFFFFFFFFFFFFFFFFFFFFFFFFFFFFFFFFF AND DUP2 MSTORE POP POP DUP5 DUP3 DUP2 MLOAD DUP2 LT PUSH2 0x60D JUMPI PUSH2 0x60C PUSH2 0x108D JUMP JUMPDEST JUMPDEST PUSH1 0x20 MUL PUSH1 0x20 ADD ADD DUP2 SWAP1 MSTORE POP DUP1 DUP1 PUSH1 0x1 ADD SWAP2 POP POP PUSH2 0x492 JUMP JUMPDEST POP POP POP SWAP3 SWAP2 POP POP JUMP JUMPDEST PUSH1 0x40 MLOAD DUP1 PUSH1 0xA0 ADD PUSH1 0x40 MSTORE DUP1 PUSH1 0x0 DUP2 MSTORE PUSH1 0x20 ADD PUSH1 0x60 DUP2 MSTORE PUSH1 0x20 ADD PUSH1 0x0 DUP2 MSTORE PUSH1 0x20 ADD PUSH1 0x0 PUSH1 0x1 DUP2 GT ISZERO PUSH2 0x662 JUMPI PUSH2 0x661 PUSH2 0x896 JUMP JUMPDEST JUMPDEST DUP2 MSTORE PUSH1 0x20 ADD PUSH1 0x0 PUSH20 0xFFFFFFFFFFFFFFFFFFFFFFFFFFFFFFFFFFFFFFFF AND DUP2 MSTORE POP SWAP1 JUMP JUMPDEST PUSH1 0x0 DUP2 SWAP1 POP SWAP2 SWAP1 POP JUMP JUMPDEST PUSH2 0x698 DUP2 PUSH2 0x685 JUMP JUMPDEST DUP3 MSTORE POP POP JUMP JUMPDEST PUSH1 0x0 PUSH1 0x20 DUP3 ADD SWAP1 POP PUSH2 0x6B3 PUSH1 0x0 DUP4 ADD DUP5 PUSH2 0x68F JUMP JUMPDEST SWAP3 SWAP2 POP POP JUMP JUMPDEST PUSH1 0x0 DUP1 REVERT JUMPDEST PUSH1 0x0 DUP1 REVERT JUMPDEST PUSH1 0x0 DUP1 REVERT JUMPDEST PUSH1 0x0 DUP1 REVERT JUMPDEST PUSH1 0x0 DUP1 REVERT JUMPDEST PUSH1 0x0 DUP1 DUP4 PUSH1 0x1F DUP5 ADD SLT PUSH2 0x6E8 JUMPI PUSH2 0x6E7 PUSH2 0x6C3 JUMP JUMPDEST JUMPDEST DUP3 CALLDATALOAD SWAP1 POP PUSH8 0xFFFFFFFFFFFFFFFF DUP2 GT ISZERO PUSH2 0x705 JUMPI PUSH2 0x704 PUSH2 0x6C8 JUMP JUMPDEST JUMPDEST PUSH1 0x20 DUP4 ADD SWAP2 POP DUP4 PUSH1 0x1 DUP3 MUL DUP4 ADD GT ISZERO PUSH2 0x721 JUMPI PUSH2 0x720 PUSH2 0x6CD JUMP JUMPDEST JUMPDEST SWAP3 POP SWAP3 SWAP1 POP JUMP JUMPDEST PUSH1 0x2 DUP2 LT PUSH2 0x735 JUMPI PUSH1 0x0 DUP1 REVERT JUMPDEST POP JUMP JUMPDEST PUSH1 0x0 DUP2 CALLDATALOAD SWAP1 POP PUSH2 0x747 DUP2 PUSH2 0x728 JUMP JUMPDEST SWAP3 SWAP2 POP POP JUMP JUMPDEST PUSH1 0x0 DUP1 PUSH1 0x0 PUSH1 0x40 DUP5 DUP7 SUB SLT ISZERO PUSH2 0x766 JUMPI PUSH2 0x765 PUSH2 0x6B9 JUMP JUMPDEST JUMPDEST PUSH1 0x0 DUP5 ADD CALLDATALOAD PUSH8 0xFFFFFFFFFFFFFFFF DUP2 GT ISZERO PUSH2 0x784 JUMPI PUSH2 0x783 PUSH2 0x6BE JUMP JUMPDEST JUMPDEST PUSH2 0x790 DUP7 DUP3 DUP8 ADD PUSH2 0x6D2 JUMP JUMPDEST SWAP4 POP SWAP4 POP POP PUSH1 0x20 PUSH2 0x7A3 DUP7 DUP3 DUP8 ADD PUSH2 0x738 JUMP JUMPDEST SWAP2 POP POP SWAP3 POP SWAP3 POP SWAP3 JUMP JUMPDEST PUSH2 0x7B6 DUP2 PUSH2 0x685 JUMP JUMPDEST DUP2 EQ PUSH2 0x7C1 JUMPI PUSH1 0x0 DUP1 REVERT JUMPDEST POP JUMP JUMPDEST PUSH1 0x0 DUP2 CALLDATALOAD SWAP1 POP PUSH2 0x7D3 DUP2 PUSH2 0x7AD JUMP JUMPDEST SWAP3 SWAP2 POP POP JUMP JUMPDEST PUSH1 0x0 PUSH1 0x20 DUP3 DUP5 SUB SLT ISZERO PUSH2 0x7EF JUMPI PUSH2 0x7EE PUSH2 0x6B9 JUMP JUMPDEST JUMPDEST PUSH1 0x0 PUSH2 0x7FD DUP5 DUP3 DUP6 ADD PUSH2 0x7C4 JUMP JUMPDEST SWAP2 POP POP SWAP3 SWAP2 POP POP JUMP JUMPDEST PUSH1 0x0 DUP2 MLOAD SWAP1 POP SWAP2 SWAP1 POP JUMP JUMPDEST PUSH1 0x0 DUP3 DUP3 MSTORE PUSH1 0x20 DUP3 ADD SWAP1 POP SWAP3 SWAP2 POP POP JUMP JUMPDEST PUSH1 0x0 JUMPDEST DUP4 DUP2 LT ISZERO PUSH2 0x840 JUMPI DUP1 DUP3 ADD MLOAD DUP2 DUP5 ADD MSTORE PUSH1 0x20 DUP2 ADD SWAP1 POP PUSH2 0x825 JUMP JUMPDEST PUSH1 0x0 DUP5 DUP5 ADD MSTORE POP POP POP POP JUMP JUMPDEST PUSH1 0x0 PUSH1 0x1F NOT PUSH1 0x1F DUP4 ADD AND SWAP1 POP SWAP2 SWAP1 POP JUMP JUMPDEST PUSH1 0x0 PUSH2 0x868 DUP3 PUSH2 0x806 JUMP JUMPDEST PUSH2 0x872 DUP2 DUP6 PUSH2 0x811 JUMP JUMPDEST SWAP4 POP PUSH2 0x882 DUP2 DUP6 PUSH1 0x20 DUP7 ADD PUSH2 0x822 JUMP JUMPDEST PUSH2 0x88B DUP2 PUSH2 0x84C JUMP JUMPDEST DUP5 ADD SWAP2 POP POP SWAP3 SWAP2 POP POP JUMP JUMPDEST PUSH32 0x4E487B7100000000000000000000000000000000000000000000000000000000 PUSH1 0x0 MSTORE PUSH1 0x21 PUSH1 0x4 MSTORE PUSH1 0x24 PUSH1 0x0 REVERT JUMPDEST PUSH1 0x2 DUP2 LT PUSH2 0x8D6 JUMPI PUSH2 0x8D5 PUSH2 0x896 JUMP JUMPDEST JUMPDEST POP JUMP JUMPDEST PUSH1 0x0 DUP2 SWAP1 POP PUSH2 0x8E7 DUP3 PUSH2 0x8C5 JUMP JUMPDEST SWAP2 SWAP1 POP JUMP JUMPDEST PUSH1 0x0 PUSH2 0x8F7 DUP3 PUSH2 0x8D9 JUMP JUMPDEST SWAP1 POP SWAP2 SWAP1 POP JUMP JUMPDEST PUSH2 0x907 DUP2 PUSH2 0x8EC JUMP JUMPDEST DUP3 MSTORE POP POP JUMP JUMPDEST PUSH1 0x0 PUSH20 0xFFFFFFFFFFFFFFFFFFFFFFFFFFFFFFFFFFFFFFFF DUP3 AND SWAP1 POP SWAP2 SWAP1 POP JUMP JUMPDEST PUSH1 0x0 PUSH2 0x938 DUP3 PUSH2 0x90D JUMP JUMPDEST SWAP1 POP SWAP2 SWAP1 POP JUMP JUMPDEST PUSH2 0x948 DUP2 PUSH2 0x92D JUMP JUMPDEST DUP3 MSTORE POP POP JUMP JUMPDEST PUSH1 0x0 PUSH1 0xA0 DUP3 ADD SWAP1 POP PUSH2 0x963 PUSH1 0x0 DUP4 ADD DUP9 PUSH2 0x68F JUMP JUMPDEST DUP2 DUP2 SUB PUSH1 0x20 DUP4 ADD MSTORE PUSH2 0x975 DUP2 DUP8 PUSH2 0x85D JUMP JUMPDEST SWAP1 POP PUSH2 0x984 PUSH1 0x40 DUP4 ADD DUP7 PUSH2 0x68F JUMP JUMPDEST PUSH2 0x991 PUSH1 0x60 DUP4 ADD DUP6 PUSH2 0x8FE JUMP JUMPDEST PUSH2 0x99E PUSH1 0x80 DUP4 ADD DUP5 PUSH2 0x93F JUMP JUMPDEST SWAP7 SWAP6 POP POP POP POP POP POP JUMP JUMPDEST PUSH1 0x0 DUP1 PUSH1 0x40 DUP4 DUP6 SUB SLT ISZERO PUSH2 0x9BF JUMPI PUSH2 0x9BE PUSH2 0x6B9 JUMP JUMPDEST JUMPDEST PUSH1 0x0 PUSH2 0x9CD DUP6 DUP3 DUP7 ADD PUSH2 0x7C4 JUMP JUMPDEST SWAP3 POP POP PUSH1 0x20 PUSH2 0x9DE DUP6 DUP3 DUP7 ADD PUSH2 0x7C4 JUMP JUMPDEST SWAP2 POP POP SWAP3 POP SWAP3 SWAP1 POP JUMP JUMPDEST PUSH1 0x0 DUP2 MLOAD SWAP1 POP SWAP2 SWAP1 POP JUMP JUMPDEST PUSH1 0x0 DUP3 DUP3 MSTORE PUSH1 0x20 DUP3 ADD SWAP1 POP SWAP3 SWAP2 POP POP JUMP JUMPDEST PUSH1 0x0 DUP2 SWAP1 POP PUSH1 0x20 DUP3 ADD SWAP1 POP SWAP2 SWAP1 POP JUMP JUMPDEST PUSH2 0xA1D DUP2 PUSH2 0x685 JUMP JUMPDEST DUP3 MSTORE POP POP JUMP JUMPDEST PUSH1 0x0 DUP3 DUP3 MSTORE PUSH1 0x20 DUP3 ADD SWAP1 POP SWAP3 SWAP2 POP POP JUMP JUMPDEST PUSH1 0x0 PUSH2 0xA3F DUP3 PUSH2 0x806 JUMP JUMPDEST PUSH2 0xA49 DUP2 DUP6 PUSH2 0xA23 JUMP JUMPDEST SWAP4 POP PUSH2 0xA59 DUP2 DUP6 PUSH1 0x20 DUP7 ADD PUSH2 0x822 JUMP JUMPDEST PUSH2 0xA62 DUP2 PUSH2 0x84C JUMP JUMPDEST DUP5 ADD SWAP2 POP POP SWAP3 SWAP2 POP POP JUMP JUMPDEST PUSH2 0xA76 DUP2 PUSH2 0x8EC JUMP JUMPDEST DUP3 MSTORE POP POP JUMP JUMPDEST PUSH2 0xA85 DUP2 PUSH2 0x92D JUMP JUMPDEST DUP3 MSTORE POP POP JUMP JUMPDEST PUSH1 0x0 PUSH1 0xA0 DUP4 ADD PUSH1 0x0 DUP4 ADD MLOAD PUSH2 0xAA3 PUSH1 0x0 DUP7 ADD DUP3 PUSH2 0xA14 JUMP JUMPDEST POP PUSH1 0x20 DUP4 ADD MLOAD DUP5 DUP3 SUB PUSH1 0x20 DUP7 ADD MSTORE PUSH2 0xABB DUP3 DUP3 PUSH2 0xA34 JUMP JUMPDEST SWAP2 POP POP PUSH1 0x40 DUP4 ADD MLOAD PUSH2 0xAD0 PUSH1 0x40 DUP7 ADD DUP3 PUSH2 0xA14 JUMP JUMPDEST POP PUSH1 0x60 DUP4 ADD MLOAD PUSH2 0xAE3 PUSH1 0x60 DUP7 ADD DUP3 PUSH2 0xA6D JUMP JUMPDEST POP PUSH1 0x80 DUP4 ADD MLOAD PUSH2 0xAF6 PUSH1 0x80 DUP7 ADD DUP3 PUSH2 0xA7C JUMP JUMPDEST POP DUP1 SWAP2 POP POP SWAP3 SWAP2 POP POP JUMP JUMPDEST PUSH1 0x0 PUSH2 0xB0D DUP4 DUP4 PUSH2 0xA8B JUMP JUMPDEST SWAP1 POP SWAP3 SWAP2 POP POP JUMP JUMPDEST PUSH1 0x0 PUSH1 0x20 DUP3 ADD SWAP1 POP SWAP2 SWAP1 POP JUMP JUMPDEST PUSH1 0x0 PUSH2 0xB2D DUP3 PUSH2 0x9E8 JUMP JUMPDEST PUSH2 0xB37 DUP2 DUP6 PUSH2 0x9F3 JUMP JUMPDEST SWAP4 POP DUP4 PUSH1 0x20 DUP3 MUL DUP6 ADD PUSH2 0xB49 DUP6 PUSH2 0xA04 JUMP JUMPDEST DUP1 PUSH1 0x0 JUMPDEST DUP6 DUP2 LT ISZERO PUSH2 0xB85 JUMPI DUP5 DUP5 SUB DUP10 MSTORE DUP2 MLOAD PUSH2 0xB66 DUP6 DUP3 PUSH2 0xB01 JUMP JUMPDEST SWAP5 POP PUSH2 0xB71 DUP4 PUSH2 0xB15 JUMP JUMPDEST SWAP3 POP PUSH1 0x20 DUP11 ADD SWAP10 POP POP PUSH1 0x1 DUP2 ADD SWAP1 POP PUSH2 0xB4D JUMP JUMPDEST POP DUP3 SWAP8 POP DUP8 SWAP6 POP POP POP POP POP POP SWAP3 SWAP2 POP POP JUMP JUMPDEST PUSH1 0x0 PUSH1 0x20 DUP3 ADD SWAP1 POP DUP2 DUP2 SUB PUSH1 0x0 DUP4 ADD MSTORE PUSH2 0xBB1 DUP2 DUP5 PUSH2 0xB22 JUMP JUMPDEST SWAP1 POP SWAP3 SWAP2 POP POP JUMP JUMPDEST PUSH32 0x4E487B7100000000000000000000000000000000000000000000000000000000 PUSH1 0x0 MSTORE PUSH1 0x11 PUSH1 0x4 MSTORE PUSH1 0x24 PUSH1 0x0 REVERT JUMPDEST PUSH1 0x0 PUSH2 0xBF3 DUP3 PUSH2 0x685 JUMP JUMPDEST SWAP2 POP PUSH32 0xFFFFFFFFFFFFFFFFFFFFFFFFFFFFFFFFFFFFFFFFFFFFFFFFFFFFFFFFFFFFFFFF DUP3 SUB PUSH2 0xC25 JUMPI PUSH2 0xC24 PUSH2 0xBB9 JUMP JUMPDEST JUMPDEST PUSH1 0x1 DUP3 ADD SWAP1 POP SWAP2 SWAP1 POP JUMP JUMPDEST PUSH32 0x4E487B7100000000000000000000000000000000000000000000000000000000 PUSH1 0x0 MSTORE PUSH1 0x41 PUSH1 0x4 MSTORE PUSH1 0x24 PUSH1 0x0 REVERT JUMPDEST PUSH32 0x4E487B7100000000000000000000000000000000000000000000000000000000 PUSH1 0x0 MSTORE PUSH1 0x22 PUSH1 0x4 MSTORE PUSH1 0x24 PUSH1 0x0 REVERT JUMPDEST PUSH1 0x0 PUSH1 0x2 DUP3 DIV SWAP1 POP PUSH1 0x1 DUP3 AND DUP1 PUSH2 0xCA6 JUMPI PUSH1 0x7F DUP3 AND SWAP2 POP JUMPDEST PUSH1 0x20 DUP3 LT DUP2 SUB PUSH2 0xCB9 JUMPI PUSH2 0xCB8 PUSH2 0xC5F JUMP JUMPDEST JUMPDEST POP SWAP2 SWAP1 POP JUMP JUMPDEST PUSH1 0x0 DUP2 SWAP1 POP DUP2 PUSH1 0x0 MSTORE PUSH1 0x20 PUSH1 0x0 KECCAK256 SWAP1 POP SWAP2 SWAP1 POP JUMP JUMPDEST PUSH1 0x0 PUSH1 0x20 PUSH1 0x1F DUP4 ADD DIV SWAP1 POP SWAP2 SWAP1 POP JUMP JUMPDEST PUSH1 0x0 DUP3 DUP3 SHL SWAP1 POP SWAP3 SWAP2 POP POP JUMP JUMPDEST PUSH1 0x0 PUSH1 0x8 DUP4 MUL PUSH2 0xD21 PUSH32 0xFFFFFFFFFFFFFFFFFFFFFFFFFFFFFFFFFFFFFFFFFFFFFFFFFFFFFFFFFFFFFFFF DUP3 PUSH2 0xCE4 JUMP JUMPDEST PUSH2 0xD2B DUP7 DUP4 PUSH2 0xCE4 JUMP JUMPDEST SWAP6 POP DUP1 NOT DUP5 AND SWAP4 POP DUP1 DUP7 AND DUP5 OR SWAP3 POP POP POP SWAP4 SWAP3 POP POP POP JUMP JUMPDEST PUSH1 0x0 DUP2 SWAP1 POP SWAP2 SWAP1 POP JUMP JUMPDEST PUSH1 0x0 PUSH2 0xD68 PUSH2 0xD63 PUSH2 0xD5E DUP5 PUSH2 0x685 JUMP JUMPDEST PUSH2 0xD43 JUMP JUMPDEST PUSH2 0x685 JUMP JUMPDEST SWAP1 POP SWAP2 SWAP1 POP JUMP JUMPDEST PUSH1 0x0 DUP2 SWAP1 POP SWAP2 SWAP1 POP JUMP JUMPDEST PUSH2 0xD82 DUP4 PUSH2 0xD4D JUMP JUMPDEST PUSH2 0xD96 PUSH2 0xD8E DUP3 PUSH2 0xD6F JUMP JUMPDEST DUP5 DUP5 SLOAD PUSH2 0xCF1 JUMP JUMPDEST DUP3 SSTORE POP POP POP POP JUMP JUMPDEST PUSH1 0x0 SWAP1 JUMP JUMPDEST PUSH2 0xDAB PUSH2 0xD9E JUMP JUMPDEST PUSH2 0xDB6 DUP2 DUP5 DUP5 PUSH2 0xD79 JUMP JUMPDEST POP POP POP JUMP JUMPDEST JUMPDEST DUP2 DUP2 LT ISZERO PUSH2 0xDDA JUMPI PUSH2 0xDCF PUSH1 0x0 DUP3 PUSH2 0xDA3 JUMP JUMPDEST PUSH1 0x1 DUP2 ADD SWAP1 POP PUSH2 0xDBC JUMP JUMPDEST POP POP JUMP JUMPDEST PUSH1 0x1F DUP3 GT ISZERO PUSH2 0xE1F JUMPI PUSH2 0xDF0 DUP2 PUSH2 0xCBF JUMP JUMPDEST PUSH2 0xDF9 DUP5 PUSH2 0xCD4 JUMP JUMPDEST DUP2 ADD PUSH1 0x20 DUP6 LT ISZERO PUSH2 0xE08 JUMPI DUP2 SWAP1 POP JUMPDEST PUSH2 0xE1C PUSH2 0xE14 DUP6 PUSH2 0xCD4 JUMP JUMPDEST DUP4 ADD DUP3 PUSH2 0xDBB JUMP JUMPDEST POP POP JUMPDEST POP POP POP JUMP JUMPDEST PUSH1 0x0 DUP3 DUP3 SHR SWAP1 POP SWAP3 SWAP2 POP POP JUMP JUMPDEST PUSH1 0x0 PUSH2 0xE42 PUSH1 0x0 NOT DUP5 PUSH1 0x8 MUL PUSH2 0xE24 JUMP JUMPDEST NOT DUP1 DUP4 AND SWAP2 POP POP SWAP3 SWAP2 POP POP JUMP JUMPDEST PUSH1 0x0 PUSH2 0xE5B DUP4 DUP4 PUSH2 0xE31 JUMP JUMPDEST SWAP2 POP DUP3 PUSH1 0x2 MUL DUP3 OR SWAP1 POP SWAP3 SWAP2 POP POP JUMP JUMPDEST PUSH2 0xE74 DUP3 PUSH2 0x806 JUMP JUMPDEST PUSH8 0xFFFFFFFFFFFFFFFF DUP2 GT ISZERO PUSH2 0xE8D JUMPI PUSH2 0xE8C PUSH2 0xC30 JUMP JUMPDEST JUMPDEST PUSH2 0xE97 DUP3 SLOAD PUSH2 0xC8E JUMP JUMPDEST PUSH2 0xEA2 DUP3 DUP3 DUP6 PUSH2 0xDDE JUMP JUMPDEST PUSH1 0x0 PUSH1 0x20 SWAP1 POP PUSH1 0x1F DUP4 GT PUSH1 0x1 DUP2 EQ PUSH2 0xED5 JUMPI PUSH1 0x0 DUP5 ISZERO PUSH2 0xEC3 JUMPI DUP3 DUP8 ADD MLOAD SWAP1 POP JUMPDEST PUSH2 0xECD DUP6 DUP3 PUSH2 0xE4F JUMP JUMPDEST DUP7 SSTORE POP PUSH2 0xF35 JUMP JUMPDEST PUSH1 0x1F NOT DUP5 AND PUSH2 0xEE3 DUP7 PUSH2 0xCBF JUMP JUMPDEST PUSH1 0x0 JUMPDEST DUP3 DUP2 LT ISZERO PUSH2 0xF0B JUMPI DUP5 DUP10 ADD MLOAD DUP3 SSTORE PUSH1 0x1 DUP3 ADD SWAP2 POP PUSH1 0x20 DUP6 ADD SWAP5 POP PUSH1 0x20 DUP2 ADD SWAP1 POP PUSH2 0xEE6 JUMP JUMPDEST DUP7 DUP4 LT ISZERO PUSH2 0xF28 JUMPI DUP5 DUP10 ADD MLOAD PUSH2 0xF24 PUSH1 0x1F DUP10 AND DUP3 PUSH2 0xE31 JUMP JUMPDEST DUP4 SSTORE POP JUMPDEST PUSH1 0x1 PUSH1 0x2 DUP9 MUL ADD DUP9 SSTORE POP POP POP JUMPDEST POP POP POP POP POP POP JUMP JUMPDEST DUP3 DUP2 DUP4 CALLDATACOPY PUSH1 0x0 DUP4 DUP4 ADD MSTORE POP POP POP JUMP JUMPDEST PUSH1 0x0 PUSH2 0xF58 DUP4 DUP6 PUSH2 0x811 JUMP JUMPDEST SWAP4 POP PUSH2 0xF65 DUP4 DUP6 DUP5 PUSH2 0xF3D JUMP JUMPDEST PUSH2 0xF6E DUP4 PUSH2 0x84C JUMP JUMPDEST DUP5 ADD SWAP1 POP SWAP4 SWAP3 POP POP POP JUMP JUMPDEST PUSH1 0x0 PUSH1 0x60 DUP3 ADD SWAP1 POP DUP2 DUP2 SUB PUSH1 0x0 DUP4 ADD MSTORE PUSH2 0xF94 DUP2 DUP7 DUP9 PUSH2 0xF4C JUMP JUMPDEST SWAP1 POP PUSH2 0xFA3 PUSH1 0x20 DUP4 ADD DUP6 PUSH2 0x68F JUMP JUMPDEST PUSH2 0xFB0 PUSH1 0x40 DUP4 ADD DUP5 PUSH2 0x8FE JUMP JUMPDEST SWAP6 SWAP5 POP POP POP POP POP JUMP JUMPDEST PUSH32 0x73746172744964206F7574206F662072616E6765000000000000000000000000 PUSH1 0x0 DUP3 ADD MSTORE POP JUMP JUMPDEST PUSH1 0x0 PUSH2 0xFEF PUSH1 0x14 DUP4 PUSH2 0x811 JUMP JUMPDEST SWAP2 POP PUSH2 0xFFA DUP3 PUSH2 0xFB9 JUMP JUMPDEST PUSH1 0x20 DUP3 ADD SWAP1 POP SWAP2 SWAP1 POP JUMP JUMPDEST PUSH1 0x0 PUSH1 0x20 DUP3 ADD SWAP1 POP DUP2 DUP2 SUB PUSH1 0x0 DUP4 ADD MSTORE PUSH2 0x101E DUP2 PUSH2 0xFE2 JUMP JUMPDEST SWAP1 POP SWAP2 SWAP1 POP JUMP JUMPDEST PUSH1 0x0 PUSH2 0x1030 DUP3 PUSH2 0x685 JUMP JUMPDEST SWAP2 POP PUSH2 0x103B DUP4 PUSH2 0x685 JUMP JUMPDEST SWAP3 POP DUP3 DUP3 ADD SWAP1 POP DUP1 DUP3 GT ISZERO PUSH2 0x1053 JUMPI PUSH2 0x1052 PUSH2 0xBB9 JUMP JUMPDEST JUMPDEST SWAP3 SWAP2 POP POP JUMP JUMPDEST PUSH1 0x0 PUSH2 0x1064 DUP3 PUSH2 0x685 JUMP JUMPDEST SWAP2 POP PUSH2 0x106F DUP4 PUSH2 0x685 JUMP JUMPDEST SWAP3 POP DUP3 DUP3 SUB SWAP1 POP DUP2 DUP2 GT ISZERO PUSH2 0x1087 JUMPI PUSH2 0x1086 PUSH2 0xBB9 JUMP JUMPDEST JUMPDEST SWAP3 SWAP2 POP POP JUMP JUMPDEST PUSH32 0x4E487B7100000000000000000000000000000000000000000000000000000000 PUSH1 0x0 MSTORE PUSH1 0x32 PUSH1 0x4 MSTORE PUSH1 0x24 PUSH1 0x0 REVERT INVALID LOG2 PUSH5 0x6970667358 0x22 SLT KECCAK256 SSTORE 0xB8 0xBC EQ 0xF7 0xDA 0x22 JUMPI 0xCA 0xAC BLOCKHASH 0xDE SELFDESTRUCT 0xB9 ADDMOD 0x1F 0xEC LT PUSH15 0xB864F5AAA749861AB6EA5CA84A6473 PUSH16 0x6C634300081800330000000000000000 "},"methodIdentifiers":{"getBatch(uint256,uint256)":"fe918e68","logAttendance(string,uint8)":"3016a6a2","records(uint256)":"34461067","total()":"2ddbd13a"}}}}}